{
  "address": "0x3130d381A63563e83d32fD4D6E8213cA4A4cEbA4",
  "abi": [
    {
      "inputs": [
        {
          "internalType": "address",
          "name": "_wtao",
          "type": "address"
        },
        {
          "internalType": "address",
          "name": "_uniswapRouter",
          "type": "address"
        },
        {
          "internalType": "address",
          "name": "_transferPrecompile",
          "type": "address"
        }
      ],
      "stateMutability": "nonpayable",
      "type": "constructor"
    },
    {
      "inputs": [],
      "name": "INVALID_FEE",
      "type": "error"
    },
    {
      "inputs": [],
      "name": "TRANSFER_FAILED",
      "type": "error"
    },
    {
      "anonymous": false,
      "inputs": [
        {
          "indexed": true,
          "internalType": "bytes32",
          "name": "user",
          "type": "bytes32"
        },
        {
          "indexed": false,
          "internalType": "uint256",
          "name": "amount",
          "type": "uint256"
        }
      ],
      "name": "TaoTransfer",
      "type": "event"
    },
    {
      "inputs": [],
      "name": "PERCENTAGE_FACTOR",
      "outputs": [
        {
          "internalType": "uint256",
          "name": "",
          "type": "uint256"
        }
      ],
      "stateMutability": "view",
      "type": "function"
    },
    {
      "inputs": [
        {
          "components": [
            {
              "internalType": "address",
              "name": "tokenIn",
              "type": "address"
            },
            {
              "internalType": "address",
              "name": "tokenOut",
              "type": "address"
            },
            {
              "internalType": "uint24",
              "name": "fee",
              "type": "uint24"
            },
            {
              "internalType": "address",
              "name": "recipient",
              "type": "address"
            },
            {
              "internalType": "uint256",
              "name": "deadline",
              "type": "uint256"
            },
            {
              "internalType": "uint256",
              "name": "amountIn",
              "type": "uint256"
            },
            {
              "internalType": "uint256",
              "name": "amountOutMinimum",
              "type": "uint256"
            },
            {
              "internalType": "uint160",
              "name": "sqrtPriceLimitX96",
              "type": "uint160"
            }
          ],
          "internalType": "struct IUniswapV3Router.ExactInputSingleParams",
          "name": "swapParams",
          "type": "tuple"
        },
        {
          "components": [
            {
              "internalType": "address",
              "name": "receiver",
              "type": "address"
            },
            {
              "internalType": "uint256",
              "name": "feePercentage",
              "type": "uint256"
            }
          ],
          "internalType": "struct SwapAndTransfer.UiFeeParams",
          "name": "uiFeeParams",
          "type": "tuple"
        },
        {
          "internalType": "bytes32",
          "name": "receiver",
          "type": "bytes32"
        }
      ],
      "name": "swapAndTransfer",
      "outputs": [],
      "stateMutability": "nonpayable",
      "type": "function"
    },
    {
      "inputs": [],
      "name": "transferPrecompile",
      "outputs": [
        {
          "internalType": "address",
          "name": "",
          "type": "address"
        }
      ],
      "stateMutability": "view",
      "type": "function"
    },
    {
      "inputs": [],
      "name": "uniswapRouter",
      "outputs": [
        {
          "internalType": "address",
          "name": "",
          "type": "address"
        }
      ],
      "stateMutability": "view",
      "type": "function"
    },
    {
      "inputs": [],
      "name": "wtao",
      "outputs": [
        {
          "internalType": "address",
          "name": "",
          "type": "address"
        }
      ],
      "stateMutability": "view",
      "type": "function"
    },
    {
      "stateMutability": "payable",
      "type": "receive"
    }
  ],
  "transactionHash": "0x5170d6cdcc7ee636a7f441f534dfe668ca72267a39e5cac3eb71841c433f46b4",
  "args": [
    "0x9Dc08C6e2BF0F1eeD1E00670f80Df39145529F81",
    "0x667A1AA098D03f788eBaD7678B7c02504EaC6092",
    "0x0000000000000000000000000000000000000800"
  ],
  "numDeployments": 1,
  "solcInputHash": "ee81b0d19bd3c73fd705571a1d7e3cd1",
  "bytecode": "0x60e060405234801561001057600080fd5b50604051610cd7380380610cd783398101604081905261002f91610068565b6001600160a01b0392831660805290821660a0521660c0526100ab565b80516001600160a01b038116811461006357600080fd5b919050565b60008060006060848603121561007d57600080fd5b6100868461004c565b92506100946020850161004c565b91506100a26040850161004c565b90509250925092565b60805160a05160c051610bd56101026000396000818160d801526104f0015260008181608e0152818161021901526102fb01526000818161010c015281816103a00152818161043601526104870152610bd56000f3fe60806040526004361061004e5760003560e01c80632b2ea81c1461005a578063735de9f71461007c578063a3e93a5c146100c6578063a4fa91c4146100fa578063ee01e5e71461012e57600080fd5b3661005557005b600080fd5b34801561006657600080fd5b5061007a610075366004610954565b610152565b005b34801561008857600080fd5b506100b07f000000000000000000000000000000000000000000000000000000000000000081565b6040516100bd9190610a3e565b60405180910390f35b3480156100d257600080fd5b506100b07f000000000000000000000000000000000000000000000000000000000000000081565b34801561010657600080fd5b506100b07f000000000000000000000000000000000000000000000000000000000000000081565b34801561013a57600080fd5b5061014461271081565b6040519081526020016100bd565b60a083015183516040516370a0823160e01b81526101cf92916001600160a01b0316906370a0823190610189903390600401610a3e565b602060405180830381865afa1580156101a6573d6000803e3d6000fd5b505050506040513d601f19601f820116820180604052508101906101ca9190610a52565b610618565b60a08401819052306060850181905284516101ed9290913391610632565b825160a084015160405163095ea7b360e01b81526001600160a01b039092169163095ea7b391610242917f00000000000000000000000000000000000000000000000000000000000000009190600401610a6b565b6020604051808303816000875af1158015610261573d6000803e3d6000fd5b505050506040513d601f19601f820116820180604052508101906102859190610a84565b506040805163414bf38960e01b815284516001600160a01b0390811660048301526020860151811660248301529185015162ffffff1660448201526060850151821660648201526080850151608482015260a085015160a482015260c085015160c482015260e0850151821660e48201526000917f0000000000000000000000000000000000000000000000000000000000000000169063414bf38990610104016020604051808303816000875af1158015610345573d6000803e3d6000fd5b505050506040513d601f19601f820116820180604052508101906103699190610a52565b9050600061271061037e602086013584610ac3565b6103889190610ada565b90506103948183610afc565b91506001600160a01b037f00000000000000000000000000000000000000000000000000000000000000001663a9059cbb6103d26020870187610b0f565b836040518363ffffffff1660e01b81526004016103f0929190610a6b565b6020604051808303816000875af115801561040f573d6000803e3d6000fd5b505050506040513d601f19601f820116820180604052508101906104339190610a84565b507f00000000000000000000000000000000000000000000000000000000000000006001600160a01b031685602001516001600160a01b0316036104ec57604051632e1a7d4d60e01b8152600481018390527f00000000000000000000000000000000000000000000000000000000000000006001600160a01b031690632e1a7d4d90602401600060405180830381600087803b1580156104d357600080fd5b505af11580156104e7573d6000803e3d6000fd5b505050505b60007f00000000000000000000000000000000000000000000000000000000000000006001600160a01b03168363cd6f4eb160e01b8660405160240161053491815260200190565b60408051601f198184030181529181526020820180516001600160e01b03166001600160e01b03199094169390931790925290516105729190610b50565b60006040518083038185875af1925050503d80600081146105af576040519150601f19603f3d011682016040523d82523d6000602084013e6105b4565b606091505b50509050806105d657604051631fa55c0760e11b815260040160405180910390fd5b837fd53b6a0e91d17c966400de4c6a2e195b7d33f87530d71a67be869a5d6713fd948460405161060891815260200190565b60405180910390a2505050505050565b60008183106106275781610629565b825b90505b92915050565b604080516001600160a01b0385811660248301528416604482015260648082018490528251808303909101815260849091019091526020810180516001600160e01b03166323b872dd60e01b17905261068c908590610692565b50505050565b60006106e7826040518060400160405280602081526020017f5361666545524332303a206c6f772d6c6576656c2063616c6c206661696c6564815250856001600160a01b03166107719092919063ffffffff16565b90508051600014806107085750808060200190518101906107089190610a84565b61076c5760405162461bcd60e51b815260206004820152602a60248201527f5361666545524332303a204552433230206f7065726174696f6e20646964206e6044820152691bdd081cdd58d8d9595960b21b60648201526084015b60405180910390fd5b505050565b60606107808484600085610788565b949350505050565b6060824710156107e95760405162461bcd60e51b815260206004820152602660248201527f416464726573733a20696e73756666696369656e742062616c616e636520666f6044820152651c8818d85b1b60d21b6064820152608401610763565b600080866001600160a01b031685876040516108059190610b50565b60006040518083038185875af1925050503d8060008114610842576040519150601f19603f3d011682016040523d82523d6000602084013e610847565b606091505b509150915061085887838387610863565b979650505050505050565b606083156108d25782516000036108cb576001600160a01b0385163b6108cb5760405162461bcd60e51b815260206004820152601d60248201527f416464726573733a2063616c6c20746f206e6f6e2d636f6e74726163740000006044820152606401610763565b5081610780565b61078083838151156108e75781518083602001fd5b8060405162461bcd60e51b81526004016107639190610b6c565b6001600160a01b038116811461091657600080fd5b50565b803561092481610901565b919050565b803562ffffff8116811461092457600080fd5b60006040828403121561094e57600080fd5b50919050565b600080600083850361016081121561096b57600080fd5b6101008082121561097b57600080fd5b60405191508082016001600160401b03811183821017156109ac57634e487b7160e01b600052604160045260246000fd5b6040526109b886610919565b82526109c660208701610919565b60208301526109d760408701610929565b60408301526109e860608701610919565b60608301526080860135608083015260a086013560a083015260c086013560c0830152610a1760e08701610919565b60e0830152819450610a2b8782880161093c565b9350505061014084013590509250925092565b6001600160a01b0391909116815260200190565b600060208284031215610a6457600080fd5b5051919050565b6001600160a01b03929092168252602082015260400190565b600060208284031215610a9657600080fd5b81518015158114610aa657600080fd5b9392505050565b634e487b7160e01b600052601160045260246000fd5b808202811582820484141761062c5761062c610aad565b600082610af757634e487b7160e01b600052601260045260246000fd5b500490565b8181038181111561062c5761062c610aad565b600060208284031215610b2157600080fd5b8135610aa681610901565b60005b83811015610b47578181015183820152602001610b2f565b50506000910152565b60008251610b62818460208701610b2c565b9190910192915050565b6020815260008251806020840152610b8b816040850160208701610b2c565b601f01601f1916919091016040019291505056fea2646970667358221220ec9112222ceb0972aca38e5833e91039b7300e98a151caee7ea51b6d9fb9fe8864736f6c63430008150033",
  "devdoc": {
    "author": "Jason (TaoFi)",
    "kind": "dev",
    "methods": {
      "constructor": {
        "params": {
          "_transferPrecompile": "The address of the BalanceTransfer precompile.",
          "_uniswapRouter": "The address of the Uniswap V3 Router.",
          "_wtao": "The address of the WTAO token."
        }
      },
      "swapAndTransfer((address,address,uint24,address,uint256,uint256,uint256,uint160),(address,uint256),bytes32)": {
        "details": "The caller must have approved this contract to spend their input tokens.      Note: This function will override swapParams.amountIn to use the user's entire      balance of the input token and swapParams.recipient to ensure tokens are received      by this contract for staking.",
        "params": {
          "receiver": "The parameters for TAO receiver of bittensor wallet.",
          "swapParams": "The parameters for the Uniswap V3 swap.",
          "uiFeeParams": "The parameters for the UI fee."
        }
      }
    },
    "title": "SwapAndTransfer",
    "version": 1
  },
  "userdoc": {
    "kind": "user",
    "methods": {
      "constructor": {
        "notice": "Initializes the contract with the necessary external contract addresses."
      },
      "swapAndTransfer((address,address,uint24,address,uint256,uint256,uint256,uint160),(address,uint256),bytes32)": {
        "notice": "Swaps a specified amount of an input token for TAO and transfer it to bittensor wallet."
      },
      "transferPrecompile()": {
        "notice": "The address of the BalanceTransfer precompile contract."
      },
      "uniswapRouter()": {
        "notice": "The address of the Uniswap V3 Router contract."
      },
      "wtao()": {
        "notice": "The address of the Wrapped TAO (WTAO) token contract."
      }
    },
    "notice": "This contract allows users to perform a sequence of actions: swapping an ERC20 token (like USDC) for WTAO, unwrapping it to native TAO, and transfer it to bittensor wallet. It also provides functionality for swapping TAO  back to an ERC20, and bridging the asset to another chain.",
    "version": 1
  },
  "storageLayout": {
    "storage": [],
    "types": null
  }
}