{
  "address": "0xf656E75DA932fE327172CF6B37593FcaE1a2e2a3",
  "abi": [
    {
      "inputs": [
        {
          "internalType": "address",
          "name": "_taoUSD",
          "type": "address"
        },
        {
          "internalType": "address",
          "name": "_sTAO",
          "type": "address"
        },
        {
          "internalType": "address",
          "name": "_uniswapRouter",
          "type": "address"
        }
      ],
      "stateMutability": "nonpayable",
      "type": "constructor"
    },
    {
      "inputs": [],
      "name": "sTAO",
      "outputs": [
        {
          "internalType": "contract IERC20",
          "name": "",
          "type": "address"
        }
      ],
      "stateMutability": "view",
      "type": "function"
    },
    {
      "inputs": [
        {
          "internalType": "uint256",
          "name": "minTaoUSDAmount",
          "type": "uint256"
        }
      ],
      "name": "swapExactTAOForTAOUSD",
      "outputs": [
        {
          "internalType": "uint256",
          "name": "taoUSDAmount",
          "type": "uint256"
        }
      ],
      "stateMutability": "payable",
      "type": "function"
    },
    {
      "inputs": [
        {
          "internalType": "uint256",
          "name": "taoUSDAmount",
          "type": "uint256"
        },
        {
          "internalType": "uint256",
          "name": "minTAO",
          "type": "uint256"
        }
      ],
      "name": "swapExactTAOUSDForTAO",
      "outputs": [
        {
          "internalType": "uint256",
          "name": "taoAmount",
          "type": "uint256"
        }
      ],
      "stateMutability": "payable",
      "type": "function"
    },
    {
      "inputs": [],
      "name": "taoUSD",
      "outputs": [
        {
          "internalType": "contract IERC20",
          "name": "",
          "type": "address"
        }
      ],
      "stateMutability": "view",
      "type": "function"
    },
    {
      "inputs": [],
      "name": "uniswapRouter",
      "outputs": [
        {
          "internalType": "contract IUniswapV2Router02",
          "name": "",
          "type": "address"
        }
      ],
      "stateMutability": "view",
      "type": "function"
    },
    {
      "inputs": [
        {
          "internalType": "uint256",
          "name": "taoUSDAmount",
          "type": "uint256"
        },
        {
          "internalType": "uint256",
          "name": "minTaoUSDAmount",
          "type": "uint256"
        },
        {
          "internalType": "uint256",
          "name": "minSTAOAmount",
          "type": "uint256"
        }
      ],
      "name": "zapAddLiquidity",
      "outputs": [
        {
          "internalType": "uint256",
          "name": "liquidity",
          "type": "uint256"
        }
      ],
      "stateMutability": "payable",
      "type": "function"
    },
    {
      "stateMutability": "payable",
      "type": "receive"
    }
  ],
  "transactionHash": "0xff6140c9c514abceb951fa08a42658c1ae9dad40905d18fe785cbef54944db3a",
  "args": [
    "0x9bB4FC27453e04318bf968f2E994B47eDa8F724D",
    "0xf4E83cBF44415a9e677310950e250E2167842c7D",
    "0x86fe181fBEa665e52226b2981Df83a89b6edE822"
  ],
  "numDeployments": 1,
  "solcInputHash": "f521377d126f08dfbe213bb2bb56d11f",
  "bytecode": "0x60e06040523480156200001157600080fd5b506040516200150838038062001508833981016040819052620000349162000164565b60016000556001600160a01b03808416608081905283821660a05290821660c05260405163095ea7b360e01b815263095ea7b3906200007c90849060001990600401620001ae565b6020604051808303816000875af11580156200009c573d6000803e3d6000fd5b505050506040513d601f19601f82011682018060405250810190620000c29190620001c7565b5060a0516001600160a01b031663095ea7b3826000196040518363ffffffff1660e01b8152600401620000f7929190620001ae565b6020604051808303816000875af115801562000117573d6000803e3d6000fd5b505050506040513d601f19601f820116820180604052508101906200013d9190620001c7565b50505050620001f2565b80516001600160a01b03811681146200015f57600080fd5b919050565b6000806000606084860312156200017a57600080fd5b620001858462000147565b9250620001956020850162000147565b9150620001a56040850162000147565b90509250925092565b6001600160a01b03929092168252602082015260400190565b600060208284031215620001da57600080fd5b81518015158114620001eb57600080fd5b9392505050565b60805160a05160c051611247620002c16000396000818160f1015281816102ab015281816108550152610a120152600081816101250152818161019d01528181610229015281816102fb0152818161031d0152818161050f015281816105a4015281816105e20152818161066e01528181610707015281816107a7015281816109bb01528181610ab40152610b50015260008181609d01528181610171015281816102da01528181610462015281816104e2015281816107fb0152818161091c015261096701526112476000f3fe6080604052600436106100595760003560e01c80630ff9933f1461006557806368dd33bd1461008b5780637021caa9146100cc578063735de9f7146100df578063b1232ac014610113578063b33f84511461014757600080fd5b3661006057005b600080fd5b610078610073366004610f17565b61015a565b6040519081526020015b60405180910390f35b34801561009757600080fd5b506100bf7f000000000000000000000000000000000000000000000000000000000000000081565b6040516100829190610f43565b6100786100da366004610f57565b6105dd565b3480156100eb57600080fd5b506100bf7f000000000000000000000000000000000000000000000000000000000000000081565b34801561011f57600080fd5b506100bf7f000000000000000000000000000000000000000000000000000000000000000081565b610078610155366004610f70565b61090d565b6000610164610bbf565b6101996001600160a01b037f000000000000000000000000000000000000000000000000000000000000000016333087610c1d565b60007f00000000000000000000000000000000000000000000000000000000000000006001600160a01b0316639db9e18b6040518163ffffffff1660e01b8152600401602060405180830381865afa1580156101f9573d6000803e3d6000fd5b505050506040513d601f19601f8201168201806040525081019061021d9190610f92565b90506001600160a01b037f0000000000000000000000000000000000000000000000000000000000000000166347e7ef246102588334610fab565b30866040518463ffffffff1660e01b8152600401610277929190610fcc565b6000604051808303818588803b15801561029057600080fd5b505af11580156102a4573d6000803e3d6000fd5b50505050507f00000000000000000000000000000000000000000000000000000000000000006001600160a01b031663e8e337007f00000000000000000000000000000000000000000000000000000000000000007f0000000000000000000000000000000000000000000000000000000000000000887f00000000000000000000000000000000000000000000000000000000000000006001600160a01b03166370a08231306040518263ffffffff1660e01b81526004016103679190610f43565b602060405180830381865afa158015610384573d6000803e3d6000fd5b505050506040513d601f19601f820116820180604052508101906103a89190610f92565b6040516001600160e01b031960e087901b1681526001600160a01b039485166004820152939092166024840152604483015260648201526084810187905260a481018690523360c48201524260e4820152610104016060604051808303816000875af115801561041c573d6000803e3d6000fd5b505050506040513d601f19601f820116820180604052508101906104409190610fe5565b6040516370a0823160e01b815290945061050992503391506001600160a01b037f000000000000000000000000000000000000000000000000000000000000000016906370a0823190610497903090600401610f43565b602060405180830381865afa1580156104b4573d6000803e3d6000fd5b505050506040513d601f19601f820116820180604052508101906104d89190610f92565b6001600160a01b037f0000000000000000000000000000000000000000000000000000000000000000169190610c8e565b6105cb337f00000000000000000000000000000000000000000000000000000000000000006001600160a01b03166370a08231306040518263ffffffff1660e01b81526004016105599190610f43565b602060405180830381865afa158015610576573d6000803e3d6000fd5b505050506040513d601f19601f8201168201806040525081019061059a9190610f92565b6001600160a01b037f0000000000000000000000000000000000000000000000000000000000000000169190610c8e565b506105d66001600055565b9392505050565b6000807f00000000000000000000000000000000000000000000000000000000000000006001600160a01b0316639db9e18b6040518163ffffffff1660e01b8152600401602060405180830381865afa15801561063e573d6000803e3d6000fd5b505050506040513d601f19601f820116820180604052508101906106629190610f92565b90506001600160a01b037f0000000000000000000000000000000000000000000000000000000000000000166347e7ef2461069d8334610fab565b3060006040518463ffffffff1660e01b81526004016106bd929190610fcc565b6000604051808303818588803b1580156106d657600080fd5b505af11580156106ea573d6000803e3d6000fd5b50506040516370a0823160e01b8152600093506001600160a01b037f00000000000000000000000000000000000000000000000000000000000000001692506370a08231915061073e903090600401610f43565b602060405180830381865afa15801561075b573d6000803e3d6000fd5b505050506040513d601f19601f8201168201806040525081019061077f9190610f92565b60408051600280825260608201835292935060009290916020830190803683370190505090507f0000000000000000000000000000000000000000000000000000000000000000816000815181106107d9576107d9611029565b60200260200101906001600160a01b031690816001600160a01b0316815250507f00000000000000000000000000000000000000000000000000000000000000008160018151811061082d5761082d611029565b6001600160a01b0392831660209182029290920101526040516338ed173960e01b81526000917f000000000000000000000000000000000000000000000000000000000000000016906338ed1739906108929086908a90879033904290600401611083565b6000604051808303816000875af11580156108b1573d6000803e3d6000fd5b505050506040513d6000823e601f3d908101601f191682016040526108d991908101906110bf565b905080600182516108ea9190610fab565b815181106108fa576108fa611029565b6020026020010151945050505050919050565b60006109446001600160a01b037f000000000000000000000000000000000000000000000000000000000000000016333086610c1d565b6040805160028082526060820183526000926020830190803683370190505090507f00000000000000000000000000000000000000000000000000000000000000008160008151811061099957610999611029565b60200260200101906001600160a01b031690816001600160a01b0316815250507f0000000000000000000000000000000000000000000000000000000000000000816001815181106109ed576109ed611029565b6001600160a01b0392831660209182029290920101526040516338ed173960e01b81527f0000000000000000000000000000000000000000000000000000000000000000909116906338ed173990610a52908790600090869030904290600401611083565b6000604051808303816000875af1158015610a71573d6000803e3d6000fd5b505050506040513d6000823e601f3d908101601f19168201604052610a9991908101906110bf565b506040516370a0823160e01b81526000906001600160a01b037f000000000000000000000000000000000000000000000000000000000000000016906370a0823190610ae9903090600401610f43565b602060405180830381865afa158015610b06573d6000803e3d6000fd5b505050506040513d601f19601f82011682018060405250810190610b2a9190610f92565b604051631cc6d2f960e31b815260048101829052336024820152604481018690529091507f00000000000000000000000000000000000000000000000000000000000000006001600160a01b03169063e63697c890606401600060405180830381600087803b158015610b9c57600080fd5b505af1158015610bb0573d6000803e3d6000fd5b50929450505050505b92915050565b600260005403610c165760405162461bcd60e51b815260206004820152601f60248201527f5265656e7472616e637947756172643a207265656e7472616e742063616c6c0060448201526064015b60405180910390fd5b6002600055565b6040516001600160a01b0380851660248301528316604482015260648101829052610c889085906323b872dd60e01b906084015b60408051601f198184030181529190526020810180516001600160e01b03166001600160e01b031990931692909217909152610cb2565b50505050565b610cad8363a9059cbb60e01b8484604051602401610c51929190610fcc565b505050565b6000610d07826040518060400160405280602081526020017f5361666545524332303a206c6f772d6c6576656c2063616c6c206661696c6564815250856001600160a01b0316610d879092919063ffffffff16565b9050805160001480610d28575080806020019051810190610d28919061117c565b610cad5760405162461bcd60e51b815260206004820152602a60248201527f5361666545524332303a204552433230206f7065726174696f6e20646964206e6044820152691bdd081cdd58d8d9595960b21b6064820152608401610c0d565b6060610d968484600085610d9e565b949350505050565b606082471015610dff5760405162461bcd60e51b815260206004820152602660248201527f416464726573733a20696e73756666696369656e742062616c616e636520666f6044820152651c8818d85b1b60d21b6064820152608401610c0d565b600080866001600160a01b03168587604051610e1b91906111c2565b60006040518083038185875af1925050503d8060008114610e58576040519150601f19603f3d011682016040523d82523d6000602084013e610e5d565b606091505b5091509150610e6e87838387610e79565b979650505050505050565b60608315610ee8578251600003610ee1576001600160a01b0385163b610ee15760405162461bcd60e51b815260206004820152601d60248201527f416464726573733a2063616c6c20746f206e6f6e2d636f6e74726163740000006044820152606401610c0d565b5081610d96565b610d968383815115610efd5781518083602001fd5b8060405162461bcd60e51b8152600401610c0d91906111de565b600080600060608486031215610f2c57600080fd5b505081359360208301359350604090920135919050565b6001600160a01b0391909116815260200190565b600060208284031215610f6957600080fd5b5035919050565b60008060408385031215610f8357600080fd5b50508035926020909101359150565b600060208284031215610fa457600080fd5b5051919050565b81810381811115610bb957634e487b7160e01b600052601160045260246000fd5b6001600160a01b03929092168252602082015260400190565b600080600060608486031215610ffa57600080fd5b8351925060208401519150604084015190509250925092565b634e487b7160e01b600052604160045260246000fd5b634e487b7160e01b600052603260045260246000fd5b600081518084526020808501945080840160005b838110156110785781516001600160a01b031687529582019590820190600101611053565b509495945050505050565b85815284602082015260a0604082015260006110a260a083018661103f565b6001600160a01b0394909416606083015250608001529392505050565b600060208083850312156110d257600080fd5b82516001600160401b03808211156110e957600080fd5b818501915085601f8301126110fd57600080fd5b81518181111561110f5761110f611013565b8060051b604051601f19603f8301168101818110858211171561113457611134611013565b60405291825284820192508381018501918883111561115257600080fd5b938501935b8285101561117057845184529385019392850192611157565b98975050505050505050565b60006020828403121561118e57600080fd5b815180151581146105d657600080fd5b60005b838110156111b95781810151838201526020016111a1565b50506000910152565b600082516111d481846020870161119e565b9190910192915050565b60208152600082518060208401526111fd81604085016020870161119e565b601f01601f1916919091016040019291505056fea26469706673582212203facabb7e757498312f205aeb88eda511be9c8b0b063b8c5cb9754f237f8375464736f6c63430008150033",
  "devdoc": {
    "kind": "dev",
    "methods": {},
    "version": 1
  },
  "userdoc": {
    "kind": "user",
    "methods": {},
    "version": 1
  },
  "storageLayout": {
    "storage": [
      {
        "astId": 10,
        "contract": "contracts/TaoUSDSTAOZap.sol:TaoUSDSTAOZap",
        "label": "_status",
        "offset": 0,
        "slot": "0",
        "type": "t_uint256"
      }
    ],
    "types": {
      "t_uint256": {
        "encoding": "inplace",
        "label": "uint256",
        "numberOfBytes": "32"
      }
    }
  }
}