{
  "address": "0x1ea0f1Fcb10B58F5e43c4C764CAb1A35aB6bc792",
  "abi": [
    {
      "inputs": [
        {
          "internalType": "address",
          "name": "_receiver",
          "type": "address"
        }
      ],
      "stateMutability": "nonpayable",
      "type": "constructor"
    },
    {
      "anonymous": false,
      "inputs": [
        {
          "indexed": true,
          "internalType": "address",
          "name": "previousOwner",
          "type": "address"
        },
        {
          "indexed": true,
          "internalType": "address",
          "name": "newOwner",
          "type": "address"
        }
      ],
      "name": "OwnershipTransferred",
      "type": "event"
    },
    {
      "inputs": [],
      "name": "claim",
      "outputs": [],
      "stateMutability": "nonpayable",
      "type": "function"
    },
    {
      "inputs": [],
      "name": "owner",
      "outputs": [
        {
          "internalType": "address",
          "name": "",
          "type": "address"
        }
      ],
      "stateMutability": "view",
      "type": "function"
    },
    {
      "inputs": [],
      "name": "receiver",
      "outputs": [
        {
          "internalType": "address",
          "name": "",
          "type": "address"
        }
      ],
      "stateMutability": "view",
      "type": "function"
    },
    {
      "inputs": [
        {
          "internalType": "address",
          "name": "newOwner",
          "type": "address"
        }
      ],
      "name": "setFactoryOwner",
      "outputs": [],
      "stateMutability": "nonpayable",
      "type": "function"
    },
    {
      "inputs": [
        {
          "internalType": "address",
          "name": "_receiver",
          "type": "address"
        }
      ],
      "name": "setReceiver",
      "outputs": [],
      "stateMutability": "nonpayable",
      "type": "function"
    },
    {
      "inputs": [
        {
          "internalType": "address",
          "name": "newOwner",
          "type": "address"
        }
      ],
      "name": "transferOwnership",
      "outputs": [],
      "stateMutability": "nonpayable",
      "type": "function"
    }
  ],
  "transactionHash": "0xa1827e6b1821ed5579260bfbba7ff912bd8139cf4644c3dbe1ed1d26e7c6ff2d",
  "args": [
    "0x244e6cc02e9a800Ff960d76D6f70C7eAC2641324"
  ],
  "numDeployments": 1,
  "solcInputHash": "1a23bb5b0836ddd6b514d49a599e99ec",
  "bytecode": "0x608060405234801561001057600080fd5b5060405161056038038061056083398101604081905261002f91610087565b60018054336001600160a01b03199182168117909255600080549091166001600160a01b0384161781556040517f8be0079c531659141344cd1fd0a4f28419497f9722a3daafe3b4186f6b6457e0908290a3506100b7565b60006020828403121561009957600080fd5b81516001600160a01b03811681146100b057600080fd5b9392505050565b61049a806100c66000396000f3fe608060405234801561001057600080fd5b50600436106100625760003560e01c80634e71d92d14610067578063718da7ee146100715780638da5cb5b14610084578063f2fde38b146100ad578063f3cc660c146100c0578063f7260d3e146100d3575b600080fd5b61006f6100e6565b005b61006f61007f3660046103ae565b610201565b600154610097906001600160a01b031681565b6040516100a491906103de565b60405180910390f35b61006f6100bb3660046103ae565b610256565b61006f6100ce3660046103ae565b610318565b600054610097906001600160a01b031681565b600080736647dcbeb030dc8e227d8b1a2cb6a49f3c887e3c6001600160a01b0316631ad8b03b6040518163ffffffff1660e01b81526004016040805180830381865afa15801561013a573d6000803e3d6000fd5b505050506040513d601f19601f8201168201806040525081019061015e919061040e565b6000546040516385b6672960e01b81526001600160a01b0390911660048201526001600160801b038084166024830152821660448201529193509150736647dcbeb030dc8e227d8b1a2cb6a49f3c887e3c906385b667299060640160408051808303816000875af11580156101d7573d6000803e3d6000fd5b505050506040513d601f19601f820116820180604052508101906101fb919061040e565b50505050565b6001546001600160a01b031633146102345760405162461bcd60e51b815260040161022b90610441565b60405180910390fd5b600080546001600160a01b0319166001600160a01b0392909216919091179055565b6001546001600160a01b031633146102805760405162461bcd60e51b815260040161022b90610441565b6001600160a01b0381166102c65760405162461bcd60e51b815260206004820152600d60248201526c24b73b30b634b21037bbb732b960991b604482015260640161022b565b600180546001600160a01b038381166001600160a01b0319831681179093556040519116919082907f8be0079c531659141344cd1fd0a4f28419497f9722a3daafe3b4186f6b6457e090600090a35050565b6001546001600160a01b031633146103425760405162461bcd60e51b815260040161022b90610441565b6040516313af403560e01b81527320d0cdf9004bf56bca52a25c9288aad0ebb97d59906313af4035906103799084906004016103de565b600060405180830381600087803b15801561039357600080fd5b505af11580156103a7573d6000803e3d6000fd5b5050505050565b6000602082840312156103c057600080fd5b81356001600160a01b03811681146103d757600080fd5b9392505050565b6001600160a01b0391909116815260200190565b80516001600160801b038116811461040957600080fd5b919050565b6000806040838503121561042157600080fd5b61042a836103f2565b9150610438602084016103f2565b90509250929050565b6020808252600990820152682737ba1037bbb732b960b91b60408201526060019056fea2646970667358221220ff8d417317115d78f0214c44424912c3050f98f78443bfb2db4d8dfa76af0ab464736f6c63430008160033",
  "devdoc": {
    "kind": "dev",
    "methods": {},
    "version": 1
  },
  "userdoc": {
    "kind": "user",
    "methods": {
      "transferOwnership(address)": {
        "notice": "Transfer contract ownership"
      }
    },
    "version": 1
  },
  "storageLayout": {
    "storage": [
      {
        "astId": 11021,
        "contract": "contracts/UniV3PoolFeeClaimer.sol:UniV3PoolFeeClaimer",
        "label": "receiver",
        "offset": 0,
        "slot": "0",
        "type": "t_address"
      },
      {
        "astId": 11023,
        "contract": "contracts/UniV3PoolFeeClaimer.sol:UniV3PoolFeeClaimer",
        "label": "owner",
        "offset": 0,
        "slot": "1",
        "type": "t_address"
      }
    ],
    "types": {
      "t_address": {
        "encoding": "inplace",
        "label": "address",
        "numberOfBytes": "20"
      }
    }
  }
}