{
  "address": "0x58f41238A3Cc43162D89b35e13B0c5365e616df5",
  "abi": [
    {
      "inputs": [],
      "stateMutability": "nonpayable",
      "type": "constructor"
    },
    {
      "anonymous": false,
      "inputs": [
        {
          "indexed": true,
          "internalType": "address",
          "name": "previousOwner",
          "type": "address"
        },
        {
          "indexed": true,
          "internalType": "address",
          "name": "newOwner",
          "type": "address"
        }
      ],
      "name": "OwnershipTransferred",
      "type": "event"
    },
    {
      "inputs": [
        {
          "internalType": "address",
          "name": "receiver",
          "type": "address"
        }
      ],
      "name": "claim",
      "outputs": [],
      "stateMutability": "nonpayable",
      "type": "function"
    },
    {
      "inputs": [],
      "name": "owner",
      "outputs": [
        {
          "internalType": "address",
          "name": "",
          "type": "address"
        }
      ],
      "stateMutability": "view",
      "type": "function"
    },
    {
      "inputs": [
        {
          "internalType": "address",
          "name": "newOwner",
          "type": "address"
        }
      ],
      "name": "setFactoryOwner",
      "outputs": [],
      "stateMutability": "nonpayable",
      "type": "function"
    },
    {
      "inputs": [
        {
          "internalType": "address",
          "name": "newOwner",
          "type": "address"
        }
      ],
      "name": "transferOwnership",
      "outputs": [],
      "stateMutability": "nonpayable",
      "type": "function"
    }
  ],
  "transactionHash": "0x28e2514617886085e3ff9e331b97bfca5bcad8485552f8a4c7d68c749a18c153",
  "args": [],
  "numDeployments": 1,
  "solcInputHash": "67bd88bf5a75469cd9350621a8a68ae3",
  "bytecode": "0x608060405234801561001057600080fd5b50600080546001600160a01b0319163390811782556040519091907f8be0079c531659141344cd1fd0a4f28419497f9722a3daafe3b4186f6b6457e0908290a361043b8061005f6000396000f3fe608060405234801561001057600080fd5b506004361061004c5760003560e01c80631e83409a146100515780638da5cb5b14610066578063f2fde38b1461008f578063f3cc660c146100a2575b600080fd5b61006461005f36600461034f565b6100b5565b005b600054610079906001600160a01b031681565b604051610086919061037f565b60405180910390f35b61006461009d36600461034f565b610200565b6100646100b036600461034f565b6102c0565b6000546001600160a01b031633146100e85760405162461bcd60e51b81526004016100df90610393565b60405180910390fd5b600080736647dcbeb030dc8e227d8b1a2cb6a49f3c887e3c6001600160a01b0316631ad8b03b6040518163ffffffff1660e01b81526004016040805180830381865afa15801561013c573d6000803e3d6000fd5b505050506040513d601f19601f8201168201806040525081019061016091906103d2565b6040516385b6672960e01b81526001600160a01b03861660048201526001600160801b038084166024830152821660448201529193509150736647dcbeb030dc8e227d8b1a2cb6a49f3c887e3c906385b667299060640160408051808303816000875af11580156101d5573d6000803e3d6000fd5b505050506040513d601f19601f820116820180604052508101906101f991906103d2565b5050505050565b6000546001600160a01b0316331461022a5760405162461bcd60e51b81526004016100df90610393565b6001600160a01b0381166102705760405162461bcd60e51b815260206004820152600d60248201526c24b73b30b634b21037bbb732b960991b60448201526064016100df565b600080546001600160a01b038381166001600160a01b0319831681178455604051919092169283917f8be0079c531659141344cd1fd0a4f28419497f9722a3daafe3b4186f6b6457e09190a35050565b6000546001600160a01b031633146102ea5760405162461bcd60e51b81526004016100df90610393565b6040516313af403560e01b81527320d0cdf9004bf56bca52a25c9288aad0ebb97d59906313af40359061032190849060040161037f565b600060405180830381600087803b15801561033b57600080fd5b505af11580156101f9573d6000803e3d6000fd5b60006020828403121561036157600080fd5b81356001600160a01b038116811461037857600080fd5b9392505050565b6001600160a01b0391909116815260200190565b6020808252600990820152682737ba1037bbb732b960b91b604082015260600190565b80516001600160801b03811681146103cd57600080fd5b919050565b600080604083850312156103e557600080fd5b6103ee836103b6565b91506103fc602084016103b6565b9050925092905056fea2646970667358221220bef4a1623273ddde67f1d6d392a52b62bc6191c12342f78e06a4ead92f8f0e2164736f6c63430008160033",
  "devdoc": {
    "kind": "dev",
    "methods": {},
    "version": 1
  },
  "userdoc": {
    "kind": "user",
    "methods": {
      "transferOwnership(address)": {
        "notice": "Transfer contract ownership"
      }
    },
    "version": 1
  },
  "storageLayout": {
    "storage": [
      {
        "astId": 42,
        "contract": "contracts/UniV3PoolFeeClaimer.sol:UniV3PoolFeeClaimer",
        "label": "owner",
        "offset": 0,
        "slot": "0",
        "type": "t_address"
      }
    ],
    "types": {
      "t_address": {
        "encoding": "inplace",
        "label": "address",
        "numberOfBytes": "20"
      }
    }
  }
}