{
  "address": "0xe88c038CeDd710a012aBA286d56E2eF7441B0b42",
  "abi": [
    {
      "inputs": [],
      "stateMutability": "nonpayable",
      "type": "constructor"
    },
    {
      "anonymous": false,
      "inputs": [
        {
          "indexed": true,
          "internalType": "address",
          "name": "previousOwner",
          "type": "address"
        },
        {
          "indexed": true,
          "internalType": "address",
          "name": "newOwner",
          "type": "address"
        }
      ],
      "name": "OwnershipTransferred",
      "type": "event"
    },
    {
      "inputs": [],
      "name": "claim",
      "outputs": [],
      "stateMutability": "nonpayable",
      "type": "function"
    },
    {
      "inputs": [],
      "name": "owner",
      "outputs": [
        {
          "internalType": "address",
          "name": "",
          "type": "address"
        }
      ],
      "stateMutability": "view",
      "type": "function"
    },
    {
      "inputs": [
        {
          "internalType": "address",
          "name": "newOwner",
          "type": "address"
        }
      ],
      "name": "setFactoryOwner",
      "outputs": [],
      "stateMutability": "nonpayable",
      "type": "function"
    },
    {
      "inputs": [
        {
          "internalType": "address",
          "name": "newOwner",
          "type": "address"
        }
      ],
      "name": "transferOwnership",
      "outputs": [],
      "stateMutability": "nonpayable",
      "type": "function"
    }
  ],
  "transactionHash": "0x7e9af76cd74c2240aaf043182a7b352158ee2d842e50a1b6e6cf85fba2b4a143",
  "args": [],
  "numDeployments": 1,
  "solcInputHash": "74449fe4ab21a274c635c5a95fa290c4",
  "bytecode": "0x608060405234801561001057600080fd5b50600080546001600160a01b0319163390811782556040519091907f8be0079c531659141344cd1fd0a4f28419497f9722a3daafe3b4186f6b6457e0908290a36104178061005f6000396000f3fe608060405234801561001057600080fd5b506004361061004c5760003560e01c80634e71d92d146100515780638da5cb5b1461005b578063f2fde38b14610084578063f3cc660c14610097575b600080fd5b6100596100aa565b005b60005461006e906001600160a01b031681565b60405161007b919061032b565b60405180910390f35b61005961009236600461033f565b6101cc565b6100596100a536600461033f565b610295565b600080736647dcbeb030dc8e227d8b1a2cb6a49f3c887e3c6001600160a01b0316631ad8b03b6040518163ffffffff1660e01b81526004016040805180830381865afa1580156100fe573d6000803e3d6000fd5b505050506040513d601f19601f82011682018060405250810190610122919061038b565b6040516385b6672960e01b815273b8dd0e5580be15e56c6937ee0e4eab3c6f4e936060048201526001600160801b038084166024830152821660448201529193509150736647dcbeb030dc8e227d8b1a2cb6a49f3c887e3c906385b667299060640160408051808303816000875af11580156101a2573d6000803e3d6000fd5b505050506040513d601f19601f820116820180604052508101906101c6919061038b565b50505050565b6000546001600160a01b031633146101ff5760405162461bcd60e51b81526004016101f6906103be565b60405180910390fd5b6001600160a01b0381166102455760405162461bcd60e51b815260206004820152600d60248201526c24b73b30b634b21037bbb732b960991b60448201526064016101f6565b600080546001600160a01b038381166001600160a01b0319831681178455604051919092169283917f8be0079c531659141344cd1fd0a4f28419497f9722a3daafe3b4186f6b6457e09190a35050565b6000546001600160a01b031633146102bf5760405162461bcd60e51b81526004016101f6906103be565b6040516313af403560e01b81527320d0cdf9004bf56bca52a25c9288aad0ebb97d59906313af4035906102f690849060040161032b565b600060405180830381600087803b15801561031057600080fd5b505af1158015610324573d6000803e3d6000fd5b5050505050565b6001600160a01b0391909116815260200190565b60006020828403121561035157600080fd5b81356001600160a01b038116811461036857600080fd5b9392505050565b80516001600160801b038116811461038657600080fd5b919050565b6000806040838503121561039e57600080fd5b6103a78361036f565b91506103b56020840161036f565b90509250929050565b6020808252600990820152682737ba1037bbb732b960b91b60408201526060019056fea2646970667358221220af400d8a695d772baa77d2bfbba85a376e55bd356ac6414c4128785ab03b44b464736f6c63430008160033",
  "devdoc": {
    "kind": "dev",
    "methods": {},
    "version": 1
  },
  "userdoc": {
    "kind": "user",
    "methods": {
      "transferOwnership(address)": {
        "notice": "Transfer contract ownership"
      }
    },
    "version": 1
  },
  "storageLayout": {
    "storage": [
      {
        "astId": 11024,
        "contract": "contracts/UniV3PoolFeeClaimer.sol:UniV3PoolFeeClaimer",
        "label": "owner",
        "offset": 0,
        "slot": "0",
        "type": "t_address"
      }
    ],
    "types": {
      "t_address": {
        "encoding": "inplace",
        "label": "address",
        "numberOfBytes": "20"
      }
    }
  }
}